{
    "_format": "hh-sol-artifact-1",
    "contractName": "toppicks",
    "sourceName": "contracts/toppicks.sol",
    "abi": [
        {
            "inputs": [],
            "stateMutability": "nonpayable",
            "type": "constructor"
        },
        {
            "anonymous": false,
            "inputs": [
                {
                    "indexed": true,
                    "internalType": "address",
                    "name": "owner",
                    "type": "address"
                },
                {
                    "indexed": true,
                    "internalType": "address",
                    "name": "approved",
                    "type": "address"
                },
                {
                    "indexed": true,
                    "internalType": "uint256",
                    "name": "tokenId",
                    "type": "uint256"
                }
            ],
            "name": "Approval",
            "type": "event"
        },
        {
            "anonymous": false,
            "inputs": [
                {
                    "indexed": true,
                    "internalType": "address",
                    "name": "owner",
                    "type": "address"
                },
                {
                    "indexed": true,
                    "internalType": "address",
                    "name": "operator",
                    "type": "address"
                },
                {
                    "indexed": false,
                    "internalType": "bool",
                    "name": "approved",
                    "type": "bool"
                }
            ],
            "name": "ApprovalForAll",
            "type": "event"
        },
        {
            "anonymous": false,
            "inputs": [
                {
                    "indexed": true,
                    "internalType": "address",
                    "name": "from",
                    "type": "address"
                },
                {
                    "indexed": true,
                    "internalType": "address",
                    "name": "to",
                    "type": "address"
                },
                {
                    "indexed": true,
                    "internalType": "uint256",
                    "name": "tokenId",
                    "type": "uint256"
                }
            ],
            "name": "Transfer",
            "type": "event"
        },
        {
            "inputs": [
                {
                    "internalType": "address",
                    "name": "to",
                    "type": "address"
                },
                {
                    "internalType": "uint256",
                    "name": "tokenId",
                    "type": "uint256"
                }
            ],
            "name": "approve",
            "outputs": [],
            "stateMutability": "nonpayable",
            "type": "function"
        },
        {
            "inputs": [
                {
                    "internalType": "address",
                    "name": "owner",
                    "type": "address"
                }
            ],
            "name": "balanceOf",
            "outputs": [
                {
                    "internalType": "uint256",
                    "name": "",
                    "type": "uint256"
                }
            ],
            "stateMutability": "view",
            "type": "function"
        },
        {
            "inputs": [
                {
                    "internalType": "uint256",
                    "name": "tokenID",
                    "type": "uint256"
                }
            ],
            "name": "buyTopPick",
            "outputs": [
                {
                    "internalType": "bool",
                    "name": "",
                    "type": "bool"
                }
            ],
            "stateMutability": "payable",
            "type": "function"
        },
        {
            "inputs": [
                {
                    "internalType": "uint256",
                    "name": "tokenId",
                    "type": "uint256"
                }
            ],
            "name": "getApproved",
            "outputs": [
                {
                    "internalType": "address",
                    "name": "",
                    "type": "address"
                }
            ],
            "stateMutability": "view",
            "type": "function"
        },
        {
            "inputs": [
                {
                    "internalType": "uint256",
                    "name": "tokenID",
                    "type": "uint256"
                }
            ],
            "name": "getForSale",
            "outputs": [
                {
                    "internalType": "bool",
                    "name": "",
                    "type": "bool"
                }
            ],
            "stateMutability": "view",
            "type": "function"
        },
        {
            "inputs": [
                {
                    "internalType": "uint256",
                    "name": "tokenID",
                    "type": "uint256"
                }
            ],
            "name": "getTopPickInfo",
            "outputs": [
                {
                    "components": [
                        {
                            "internalType": "uint256",
                            "name": "tokenID",
                            "type": "uint256"
                        },
                        {
                            "internalType": "bool",
                            "name": "forSale",
                            "type": "bool"
                        },
                        {
                            "internalType": "uint256",
                            "name": "price",
                            "type": "uint256"
                        }
                    ],
                    "internalType": "struct toppicks.TopPick",
                    "name": "",
                    "type": "tuple"
                }
            ],
            "stateMutability": "view",
            "type": "function"
        },
        {
            "inputs": [
                {
                    "internalType": "address",
                    "name": "owner",
                    "type": "address"
                },
                {
                    "internalType": "address",
                    "name": "operator",
                    "type": "address"
                }
            ],
            "name": "isApprovedForAll",
            "outputs": [
                {
                    "internalType": "bool",
                    "name": "",
                    "type": "bool"
                }
            ],
            "stateMutability": "view",
            "type": "function"
        },
        {
            "inputs": [
                {
                    "internalType": "uint256",
                    "name": "tokenID",
                    "type": "uint256"
                },
                {
                    "internalType": "uint256",
                    "name": "price",
                    "type": "uint256"
                }
            ],
            "name": "listTopPick",
            "outputs": [
                {
                    "internalType": "bool",
                    "name": "",
                    "type": "bool"
                }
            ],
            "stateMutability": "nonpayable",
            "type": "function"
        },
        {
            "inputs": [
                {
                    "internalType": "string",
                    "name": "tokenURI",
                    "type": "string"
                },
                {
                    "internalType": "uint256",
                    "name": "price",
                    "type": "uint256"
                }
            ],
            "name": "mintTopPickAndList",
            "outputs": [
                {
                    "internalType": "uint256",
                    "name": "",
                    "type": "uint256"
                }
            ],
            "stateMutability": "payable",
            "type": "function"
        },
        {
            "inputs": [
                {
                    "internalType": "string",
                    "name": "tokenURI",
                    "type": "string"
                }
            ],
            "name": "mintTopPickDontList",
            "outputs": [
                {
                    "internalType": "uint256",
                    "name": "",
                    "type": "uint256"
                }
            ],
            "stateMutability": "payable",
            "type": "function"
        },
        {
            "inputs": [],
            "name": "name",
            "outputs": [
                {
                    "internalType": "string",
                    "name": "",
                    "type": "string"
                }
            ],
            "stateMutability": "view",
            "type": "function"
        },
        {
            "inputs": [
                {
                    "internalType": "uint256",
                    "name": "tokenId",
                    "type": "uint256"
                }
            ],
            "name": "ownerOf",
            "outputs": [
                {
                    "internalType": "address",
                    "name": "",
                    "type": "address"
                }
            ],
            "stateMutability": "view",
            "type": "function"
        },
        {
            "inputs": [
                {
                    "internalType": "address",
                    "name": "from",
                    "type": "address"
                },
                {
                    "internalType": "address",
                    "name": "to",
                    "type": "address"
                },
                {
                    "internalType": "uint256",
                    "name": "tokenId",
                    "type": "uint256"
                }
            ],
            "name": "safeTransferFrom",
            "outputs": [],
            "stateMutability": "nonpayable",
            "type": "function"
        },
        {
            "inputs": [
                {
                    "internalType": "address",
                    "name": "from",
                    "type": "address"
                },
                {
                    "internalType": "address",
                    "name": "to",
                    "type": "address"
                },
                {
                    "internalType": "uint256",
                    "name": "tokenId",
                    "type": "uint256"
                },
                {
                    "internalType": "bytes",
                    "name": "_data",
                    "type": "bytes"
                }
            ],
            "name": "safeTransferFrom",
            "outputs": [],
            "stateMutability": "nonpayable",
            "type": "function"
        },
        {
            "inputs": [
                {
                    "internalType": "address",
                    "name": "operator",
                    "type": "address"
                },
                {
                    "internalType": "bool",
                    "name": "approved",
                    "type": "bool"
                }
            ],
            "name": "setApprovalForAll",
            "outputs": [],
            "stateMutability": "nonpayable",
            "type": "function"
        },
        {
            "inputs": [
                {
                    "internalType": "bytes4",
                    "name": "interfaceId",
                    "type": "bytes4"
                }
            ],
            "name": "supportsInterface",
            "outputs": [
                {
                    "internalType": "bool",
                    "name": "",
                    "type": "bool"
                }
            ],
            "stateMutability": "view",
            "type": "function"
        },
        {
            "inputs": [],
            "name": "symbol",
            "outputs": [
                {
                    "internalType": "string",
                    "name": "",
                    "type": "string"
                }
            ],
            "stateMutability": "view",
            "type": "function"
        },
        {
            "inputs": [
                {
                    "internalType": "uint256",
                    "name": "tokenId",
                    "type": "uint256"
                }
            ],
            "name": "tokenURI",
            "outputs": [
                {
                    "internalType": "string",
                    "name": "",
                    "type": "string"
                }
            ],
            "stateMutability": "view",
            "type": "function"
        },
        {
            "inputs": [
                {
                    "internalType": "uint256",
                    "name": "",
                    "type": "uint256"
                }
            ],
            "name": "toppick",
            "outputs": [
                {
                    "internalType": "uint256",
                    "name": "tokenID",
                    "type": "uint256"
                },
                {
                    "internalType": "bool",
                    "name": "forSale",
                    "type": "bool"
                },
                {
                    "internalType": "uint256",
                    "name": "price",
                    "type": "uint256"
                }
            ],
            "stateMutability": "view",
            "type": "function"
        },
        {
            "inputs": [
                {
                    "internalType": "address",
                    "name": "from",
                    "type": "address"
                },
                {
                    "internalType": "address",
                    "name": "to",
                    "type": "address"
                },
                {
                    "internalType": "uint256",
                    "name": "tokenId",
                    "type": "uint256"
                }
            ],
            "name": "transferFrom",
            "outputs": [],
            "stateMutability": "nonpayable",
            "type": "function"
        }
    ],
    "bytecode": "0x60806040523480156200001157600080fd5b506040518060400160405280600a81526020017f4e6261546f705069636b000000000000000000000000000000000000000000008152506040518060400160405280600381526020017f4e42410000000000000000000000000000000000000000000000000000000000815250816000908051906020019062000096929190620000b8565b508060019080519060200190620000af929190620000b8565b505050620001cd565b828054620000c69062000168565b90600052602060002090601f016020900481019282620000ea576000855562000136565b82601f106200010557805160ff191683800117855562000136565b8280016001018555821562000136579182015b828111156200013557825182559160200191906001019062000118565b5b50905062000145919062000149565b5090565b5b80821115620001645760008160009055506001016200014a565b5090565b600060028204905060018216806200018157607f821691505b602082108114156200019857620001976200019e565b5b50919050565b7f4e487b7100000000000000000000000000000000000000000000000000000000600052602260045260246000fd5b61382580620001dd6000396000f3fe60806040526004361061011f5760003560e01c806370a08231116100a0578063c87b56dd11610064578063c87b56dd14610415578063d51d7f2b14610452578063e493699114610491578063e985e9c5146104c1578063ef91edd0146104fe5761011f565b806370a082311461031e57806395d89b411461035b578063a22cb46514610386578063ad30b5e8146103af578063b88d4fde146103ec5761011f565b806323b872dd116100e757806323b872dd146102225780632abacf8c1461024b57806342842e0e1461028857806351b6bea4146102b15780636352211e146102e15761011f565b806301ffc9a71461012457806306fdde0314610161578063081812fc1461018c578063095ea7b3146101c95780631d56d6bb146101f2575b600080fd5b34801561013057600080fd5b5061014b60048036038101906101469190612533565b61053b565b6040516101589190612b2e565b60405180910390f35b34801561016d57600080fd5b5061017661061d565b6040516101839190612b49565b60405180910390f35b34801561019857600080fd5b506101b360048036038101906101ae919061261a565b6106af565b6040516101c09190612ac7565b60405180910390f35b3480156101d557600080fd5b506101f060048036038101906101eb91906124f7565b610734565b005b61020c600480360381019061020791906125c6565b61084c565b6040516102199190612e06565b60405180910390f35b34801561022e57600080fd5b50610249600480360381019061024491906123f1565b6108e9565b005b34801561025757600080fd5b50610272600480360381019061026d919061261a565b610949565b60405161027f9190612b2e565b60405180910390f35b34801561029457600080fd5b506102af60048036038101906102aa91906123f1565b610976565b005b6102cb60048036038101906102c69190612585565b610996565b6040516102d89190612e06565b60405180910390f35b3480156102ed57600080fd5b506103086004803603810190610303919061261a565b610a33565b6040516103159190612ac7565b60405180910390f35b34801561032a57600080fd5b5061034560048036038101906103409190612363565b610ae5565b6040516103529190612e06565b60405180910390f35b34801561036757600080fd5b50610370610b9d565b60405161037d9190612b49565b60405180910390f35b34801561039257600080fd5b506103ad60048036038101906103a891906124bb565b610c2f565b005b3480156103bb57600080fd5b506103d660048036038101906103d1919061261a565b610c45565b6040516103e39190612deb565b60405180910390f35b3480156103f857600080fd5b50610413600480360381019061040e9190612440565b610ca1565b005b34801561042157600080fd5b5061043c6004803603810190610437919061261a565b610d03565b6040516104499190612b49565b60405180910390f35b34801561045e57600080fd5b506104796004803603810190610474919061261a565b610e55565b60405161048893929190612e21565b60405180910390f35b6104ab60048036038101906104a6919061261a565b610e8c565b6040516104b89190612b2e565b60405180910390f35b3480156104cd57600080fd5b506104e860048036038101906104e391906123b5565b611212565b6040516104f59190612b2e565b60405180910390f35b34801561050a57600080fd5b5061052560048036038101906105209190612643565b6112a6565b6040516105329190612b2e565b60405180910390f35b60007f80ac58cd000000000000000000000000000000000000000000000000000000007bffffffffffffffffffffffffffffffffffffffffffffffffffffffff1916827bffffffffffffffffffffffffffffffffffffffffffffffffffffffff1916148061060657507f5b5e139f000000000000000000000000000000000000000000000000000000007bffffffffffffffffffffffffffffffffffffffffffffffffffffffff1916827bffffffffffffffffffffffffffffffffffffffffffffffffffffffff1916145b806106165750610615826113bc565b5b9050919050565b60606000805461062c9061309e565b80601f01602080910402602001604051908101604052809291908181526020018280546106589061309e565b80156106a55780601f1061067a576101008083540402835291602001916106a5565b820191906000526020600020905b81548152906001019060200180831161068857829003601f168201915b5050505050905090565b60006106ba82611426565b6106f9576040517f08c379a00000000000000000000000000000000000000000000000000000000081526004016106f090612d2b565b60405180910390fd5b6004600083815260200190815260200160002060009054906101000a900473ffffffffffffffffffffffffffffffffffffffff169050919050565b600061073f82610a33565b90508073ffffffffffffffffffffffffffffffffffffffff168373ffffffffffffffffffffffffffffffffffffffff1614156107b0576040517f08c379a00000000000000000000000000000000000000000000000000000000081526004016107a790612d8b565b60405180910390fd5b8073ffffffffffffffffffffffffffffffffffffffff166107cf611492565b73ffffffffffffffffffffffffffffffffffffffff1614806107fe57506107fd816107f8611492565b611212565b5b61083d576040517f08c379a000000000000000000000000000000000000000000000000000000000815260040161083490612c2b565b60405180910390fd5b610847838361149a565b505050565b60006108586007611553565b60006108646007611569565b90506108703382611577565b61087a8185611595565b80600860008381526020019081526020016000206000018190555060016008600083815260200190815260200160002060010160006101000a81548160ff0219169083151502179055508260086000838152602001908152602001600020600201819055508091505092915050565b6108fa6108f4611492565b82611609565b610939576040517f08c379a000000000000000000000000000000000000000000000000000000000815260040161093090612dcb565b60405180910390fd5b6109448383836116e7565b505050565b60006008600083815260200190815260200160002060010160009054906101000a900460ff169050919050565b61099183838360405180602001604052806000815250610ca1565b505050565b60006109a26007611553565b60006109ae6007611569565b90506109ba3382611577565b6109c48184611595565b80600860008381526020019081526020016000206000018190555060006008600083815260200190815260200160002060010160006101000a81548160ff0219169083151502179055506000600860008381526020019081526020016000206002018190555080915050919050565b6000806002600084815260200190815260200160002060009054906101000a900473ffffffffffffffffffffffffffffffffffffffff169050600073ffffffffffffffffffffffffffffffffffffffff168173ffffffffffffffffffffffffffffffffffffffff161415610adc576040517f08c379a0000000000000000000000000000000000000000000000000000000008152600401610ad390612c6b565b60405180910390fd5b80915050919050565b60008073ffffffffffffffffffffffffffffffffffffffff168273ffffffffffffffffffffffffffffffffffffffff161415610b56576040517f08c379a0000000000000000000000000000000000000000000000000000000008152600401610b4d90612c4b565b60405180910390fd5b600360008373ffffffffffffffffffffffffffffffffffffffff1673ffffffffffffffffffffffffffffffffffffffff168152602001908152602001600020549050919050565b606060018054610bac9061309e565b80601f0160208091040260200160405190810160405280929190818152602001828054610bd89061309e565b8015610c255780601f10610bfa57610100808354040283529160200191610c25565b820191906000526020600020905b815481529060010190602001808311610c0857829003601f168201915b5050505050905090565b610c41610c3a611492565b8383611943565b5050565b610c4d61214f565b60086000838152602001908152602001600020604051806060016040529081600082015481526020016001820160009054906101000a900460ff161515151581526020016002820154815250509050919050565b610cb2610cac611492565b83611609565b610cf1576040517f08c379a0000000000000000000000000000000000000000000000000000000008152600401610ce890612dcb565b60405180910390fd5b610cfd84848484611ab0565b50505050565b6060610d0e82611426565b610d4d576040517f08c379a0000000000000000000000000000000000000000000000000000000008152600401610d4490612ceb565b60405180910390fd5b6000600660008481526020019081526020016000208054610d6d9061309e565b80601f0160208091040260200160405190810160405280929190818152602001828054610d999061309e565b8015610de65780601f10610dbb57610100808354040283529160200191610de6565b820191906000526020600020905b815481529060010190602001808311610dc957829003601f168201915b505050505090506000610df7611b0c565b9050600081511415610e0d578192505050610e50565b600082511115610e42578082604051602001610e2a929190612a8e565b60405160208183030381529060405292505050610e50565b610e4b84611b23565b925050505b919050565b60086020528060005260406000206000915090508060000154908060010160009054906101000a900460ff16908060020154905083565b6000600115156008600084815260200190815260200160002060010160009054906101000a900460ff16151514610ef8576040517f08c379a0000000000000000000000000000000000000000000000000000000008152600401610eef90612dab565b60405180910390fd5b60086000838152602001908152602001600020600201543373ffffffffffffffffffffffffffffffffffffffff16311015610f68576040517f08c379a0000000000000000000000000000000000000000000000000000000008152600401610f5f90612b8b565b60405180910390fd5b3073ffffffffffffffffffffffffffffffffffffffff16636352211e836040518263ffffffff1660e01b8152600401610fa19190612e06565b60206040518083038186803b158015610fb957600080fd5b505afa158015610fcd573d6000803e3d6000fd5b505050506040513d601f19601f82011682018060405250810190610ff1919061238c565b73ffffffffffffffffffffffffffffffffffffffff163373ffffffffffffffffffffffffffffffffffffffff16141561105f576040517f08c379a000000000000000000000000000000000000000000000000000000000815260040161105690612cab565b60405180910390fd5b60003073ffffffffffffffffffffffffffffffffffffffff16636352211e846040518263ffffffff1660e01b815260040161109a9190612e06565b60206040518083038186803b1580156110b257600080fd5b505afa1580156110c6573d6000803e3d6000fd5b505050506040513d601f19601f820116820180604052508101906110ea919061238c565b905061112d8133856040518060400160405280601381526020017f50757263686173696e6720546f70205069636b00000000000000000000000000815250611ab0565b60006008600085815260200190815260200160002060010160006101000a81548160ff02191690831515021790555060008173ffffffffffffffffffffffffffffffffffffffff163460405161118290612ab2565b60006040518083038185875af1925050503d80600081146111bf576040519150601f19603f3d011682016040523d82523d6000602084013e6111c4565b606091505b5050905080611208576040517f08c379a00000000000000000000000000000000000000000000000000000000081526004016111ff90612d0b565b60405180910390fd5b8092505050919050565b6000600560008473ffffffffffffffffffffffffffffffffffffffff1673ffffffffffffffffffffffffffffffffffffffff16815260200190815260200160002060008373ffffffffffffffffffffffffffffffffffffffff1673ffffffffffffffffffffffffffffffffffffffff16815260200190815260200160002060009054906101000a900460ff16905092915050565b60003073ffffffffffffffffffffffffffffffffffffffff16636352211e846040518263ffffffff1660e01b81526004016112e19190612e06565b60206040518083038186803b1580156112f957600080fd5b505afa15801561130d573d6000803e3d6000fd5b505050506040513d601f19601f82011682018060405250810190611331919061238c565b73ffffffffffffffffffffffffffffffffffffffff163373ffffffffffffffffffffffffffffffffffffffff161461136857600080fd5b60016008600085815260200190815260200160002060010160006101000a81548160ff0219169083151502179055508160086000858152602001908152602001600020600201819055506001905092915050565b60007f01ffc9a7000000000000000000000000000000000000000000000000000000007bffffffffffffffffffffffffffffffffffffffffffffffffffffffff1916827bffffffffffffffffffffffffffffffffffffffffffffffffffffffff1916149050919050565b60008073ffffffffffffffffffffffffffffffffffffffff166002600084815260200190815260200160002060009054906101000a900473ffffffffffffffffffffffffffffffffffffffff1673ffffffffffffffffffffffffffffffffffffffff1614159050919050565b600033905090565b816004600083815260200190815260200160002060006101000a81548173ffffffffffffffffffffffffffffffffffffffff021916908373ffffffffffffffffffffffffffffffffffffffff160217905550808273ffffffffffffffffffffffffffffffffffffffff1661150d83610a33565b73ffffffffffffffffffffffffffffffffffffffff167f8c5be1e5ebec7d5bd14f71427d1e84f3dd0314c0f7b2291e5b200ac8c7c3b92560405160405180910390a45050565b6001816000016000828254019250508190555050565b600081600001549050919050565b611591828260405180602001604052806000815250611bca565b5050565b61159e82611426565b6115dd576040517f08c379a00000000000000000000000000000000000000000000000000000000081526004016115d490612c8b565b60405180910390fd5b80600660008481526020019081526020016000209080519060200190611604929190612172565b505050565b600061161482611426565b611653576040517f08c379a000000000000000000000000000000000000000000000000000000000815260040161164a90612c0b565b60405180910390fd5b600061165e83610a33565b90508073ffffffffffffffffffffffffffffffffffffffff168473ffffffffffffffffffffffffffffffffffffffff1614806116cd57508373ffffffffffffffffffffffffffffffffffffffff166116b5846106af565b73ffffffffffffffffffffffffffffffffffffffff16145b806116de57506116dd8185611212565b5b91505092915050565b8273ffffffffffffffffffffffffffffffffffffffff1661170782610a33565b73ffffffffffffffffffffffffffffffffffffffff161461175d576040517f08c379a000000000000000000000000000000000000000000000000000000000815260040161175490612d4b565b60405180910390fd5b600073ffffffffffffffffffffffffffffffffffffffff168273ffffffffffffffffffffffffffffffffffffffff1614156117cd576040517f08c379a00000000000000000000000000000000000000000000000000000000081526004016117c490612bcb565b60405180910390fd5b6117d8838383611c25565b6117e360008261149a565b6001600360008573ffffffffffffffffffffffffffffffffffffffff1673ffffffffffffffffffffffffffffffffffffffff16815260200190815260200160002060008282546118339190612fb4565b925050819055506001600360008473ffffffffffffffffffffffffffffffffffffffff1673ffffffffffffffffffffffffffffffffffffffff168152602001908152602001600020600082825461188a9190612f2d565b92505081905550816002600083815260200190815260200160002060006101000a81548173ffffffffffffffffffffffffffffffffffffffff021916908373ffffffffffffffffffffffffffffffffffffffff160217905550808273ffffffffffffffffffffffffffffffffffffffff168473ffffffffffffffffffffffffffffffffffffffff167fddf252ad1be2c89b69c2b068fc378daa952ba7f163c4a11628f55a4df523b3ef60405160405180910390a4505050565b8173ffffffffffffffffffffffffffffffffffffffff168373ffffffffffffffffffffffffffffffffffffffff1614156119b2576040517f08c379a00000000000000000000000000000000000000000000000000000000081526004016119a990612beb565b60405180910390fd5b80600560008573ffffffffffffffffffffffffffffffffffffffff1673ffffffffffffffffffffffffffffffffffffffff16815260200190815260200160002060008473ffffffffffffffffffffffffffffffffffffffff1673ffffffffffffffffffffffffffffffffffffffff16815260200190815260200160002060006101000a81548160ff0219169083151502179055508173ffffffffffffffffffffffffffffffffffffffff168373ffffffffffffffffffffffffffffffffffffffff167f17307eab39ab6107e8899845ad3d59bd9653f200f220920489ca2b5937696c3183604051611aa39190612b2e565b60405180910390a3505050565b611abb8484846116e7565b611ac784848484611c2a565b611b06576040517f08c379a0000000000000000000000000000000000000000000000000000000008152600401611afd90612b6b565b60405180910390fd5b50505050565b606060405180602001604052806000815250905090565b6060611b2e82611426565b611b6d576040517f08c379a0000000000000000000000000000000000000000000000000000000008152600401611b6490612d6b565b60405180910390fd5b6000611b77611b0c565b90506000815111611b975760405180602001604052806000815250611bc2565b80611ba184611dc1565b604051602001611bb2929190612a8e565b6040516020818303038152906040525b915050919050565b611bd48383611f6e565b611be16000848484611c2a565b611c20576040517f08c379a0000000000000000000000000000000000000000000000000000000008152600401611c1790612b6b565b60405180910390fd5b505050565b505050565b6000611c4b8473ffffffffffffffffffffffffffffffffffffffff1661213c565b15611db4578373ffffffffffffffffffffffffffffffffffffffff1663150b7a02611c74611492565b8786866040518563ffffffff1660e01b8152600401611c969493929190612ae2565b602060405180830381600087803b158015611cb057600080fd5b505af1925050508015611ce157506040513d601f19601f82011682018060405250810190611cde919061255c565b60015b611d64573d8060008114611d11576040519150601f19603f3d011682016040523d82523d6000602084013e611d16565b606091505b50600081511415611d5c576040517f08c379a0000000000000000000000000000000000000000000000000000000008152600401611d5390612b6b565b60405180910390fd5b805181602001fd5b63150b7a0260e01b7bffffffffffffffffffffffffffffffffffffffffffffffffffffffff1916817bffffffffffffffffffffffffffffffffffffffffffffffffffffffff191614915050611db9565b600190505b949350505050565b60606000821415611e09576040518060400160405280600181526020017f30000000000000000000000000000000000000000000000000000000000000008152509050611f69565b600082905060005b60008214611e3b578080611e2490613101565b915050600a82611e349190612f83565b9150611e11565b60008167ffffffffffffffff811115611e7d577f4e487b7100000000000000000000000000000000000000000000000000000000600052604160045260246000fd5b6040519080825280601f01601f191660200182016040528015611eaf5781602001600182028036833780820191505090505b5090505b60008514611f6257600182611ec89190612fb4565b9150600a85611ed7919061314a565b6030611ee39190612f2d565b60f81b818381518110611f1f577f4e487b7100000000000000000000000000000000000000000000000000000000600052603260045260246000fd5b60200101907effffffffffffffffffffffffffffffffffffffffffffffffffffffffffffff1916908160001a905350600a85611f5b9190612f83565b9450611eb3565b8093505050505b919050565b600073ffffffffffffffffffffffffffffffffffffffff168273ffffffffffffffffffffffffffffffffffffffff161415611fde576040517f08c379a0000000000000000000000000000000000000000000000000000000008152600401611fd590612ccb565b60405180910390fd5b611fe781611426565b15612027576040517f08c379a000000000000000000000000000000000000000000000000000000000815260040161201e90612bab565b60405180910390fd5b61203360008383611c25565b6001600360008473ffffffffffffffffffffffffffffffffffffffff1673ffffffffffffffffffffffffffffffffffffffff16815260200190815260200160002060008282546120839190612f2d565b92505081905550816002600083815260200190815260200160002060006101000a81548173ffffffffffffffffffffffffffffffffffffffff021916908373ffffffffffffffffffffffffffffffffffffffff160217905550808273ffffffffffffffffffffffffffffffffffffffff16600073ffffffffffffffffffffffffffffffffffffffff167fddf252ad1be2c89b69c2b068fc378daa952ba7f163c4a11628f55a4df523b3ef60405160405180910390a45050565b600080823b905060008111915050919050565b604051806060016040528060008152602001600015158152602001600081525090565b82805461217e9061309e565b90600052602060002090601f0160209004810192826121a057600085556121e7565b82601f106121b957805160ff19168380011785556121e7565b828001600101855582156121e7579182015b828111156121e65782518255916020019190600101906121cb565b5b5090506121f491906121f8565b5090565b5b808211156122115760008160009055506001016121f9565b5090565b600061222861222384612e7d565b612e58565b90508281526020810184848401111561224057600080fd5b61224b84828561305c565b509392505050565b600061226661226184612eae565b612e58565b90508281526020810184848401111561227e57600080fd5b61228984828561305c565b509392505050565b6000813590506122a081613793565b92915050565b6000815190506122b581613793565b92915050565b6000813590506122ca816137aa565b92915050565b6000813590506122df816137c1565b92915050565b6000815190506122f4816137c1565b92915050565b600082601f83011261230b57600080fd5b813561231b848260208601612215565b91505092915050565b600082601f83011261233557600080fd5b8135612345848260208601612253565b91505092915050565b60008135905061235d816137d8565b92915050565b60006020828403121561237557600080fd5b600061238384828501612291565b91505092915050565b60006020828403121561239e57600080fd5b60006123ac848285016122a6565b91505092915050565b600080604083850312156123c857600080fd5b60006123d685828601612291565b92505060206123e785828601612291565b9150509250929050565b60008060006060848603121561240657600080fd5b600061241486828701612291565b935050602061242586828701612291565b92505060406124368682870161234e565b9150509250925092565b6000806000806080858703121561245657600080fd5b600061246487828801612291565b945050602061247587828801612291565b93505060406124868782880161234e565b925050606085013567ffffffffffffffff8111156124a357600080fd5b6124af878288016122fa565b91505092959194509250565b600080604083850312156124ce57600080fd5b60006124dc85828601612291565b92505060206124ed858286016122bb565b9150509250929050565b6000806040838503121561250a57600080fd5b600061251885828601612291565b92505060206125298582860161234e565b9150509250929050565b60006020828403121561254557600080fd5b6000612553848285016122d0565b91505092915050565b60006020828403121561256e57600080fd5b600061257c848285016122e5565b91505092915050565b60006020828403121561259757600080fd5b600082013567ffffffffffffffff8111156125b157600080fd5b6125bd84828501612324565b91505092915050565b600080604083850312156125d957600080fd5b600083013567ffffffffffffffff8111156125f357600080fd5b6125ff85828601612324565b92505060206126108582860161234e565b9150509250929050565b60006020828403121561262c57600080fd5b600061263a8482850161234e565b91505092915050565b6000806040838503121561265657600080fd5b60006126648582860161234e565b92505060206126758582860161234e565b9150509250929050565b61268881612fe8565b82525050565b61269781612ffa565b82525050565b6126a681612ffa565b82525050565b60006126b782612edf565b6126c18185612ef5565b93506126d181856020860161306b565b6126da81613237565b840191505092915050565b60006126f082612eea565b6126fa8185612f11565b935061270a81856020860161306b565b61271381613237565b840191505092915050565b600061272982612eea565b6127338185612f22565b935061274381856020860161306b565b80840191505092915050565b600061275c603283612f11565b915061276782613248565b604082019050919050565b600061277f602383612f11565b915061278a82613297565b604082019050919050565b60006127a2601c83612f11565b91506127ad826132e6565b602082019050919050565b60006127c5602483612f11565b91506127d08261330f565b604082019050919050565b60006127e8601983612f11565b91506127f38261335e565b602082019050919050565b600061280b602c83612f11565b915061281682613387565b604082019050919050565b600061282e603883612f11565b9150612839826133d6565b604082019050919050565b6000612851602a83612f11565b915061285c82613425565b604082019050919050565b6000612874602983612f11565b915061287f82613474565b604082019050919050565b6000612897602e83612f11565b91506128a2826134c3565b604082019050919050565b60006128ba601d83612f11565b91506128c582613512565b602082019050919050565b60006128dd602083612f11565b91506128e88261353b565b602082019050919050565b6000612900603183612f11565b915061290b82613564565b604082019050919050565b6000612923601b83612f11565b915061292e826135b3565b602082019050919050565b6000612946602c83612f11565b9150612951826135dc565b604082019050919050565b6000612969602983612f11565b91506129748261362b565b604082019050919050565b600061298c602f83612f11565b91506129978261367a565b604082019050919050565b60006129af602183612f11565b91506129ba826136c9565b604082019050919050565b60006129d2601583612f11565b91506129dd82613718565b602082019050919050565b60006129f5600083612f06565b9150612a0082613741565b600082019050919050565b6000612a18603183612f11565b9150612a2382613744565b604082019050919050565b606082016000820151612a446000850182612a70565b506020820151612a57602085018261268e565b506040820151612a6a6040850182612a70565b50505050565b612a7981613052565b82525050565b612a8881613052565b82525050565b6000612a9a828561271e565b9150612aa6828461271e565b91508190509392505050565b6000612abd826129e8565b9150819050919050565b6000602082019050612adc600083018461267f565b92915050565b6000608082019050612af7600083018761267f565b612b04602083018661267f565b612b116040830185612a7f565b8181036060830152612b2381846126ac565b905095945050505050565b6000602082019050612b43600083018461269d565b92915050565b60006020820190508181036000830152612b6381846126e5565b905092915050565b60006020820190508181036000830152612b848161274f565b9050919050565b60006020820190508181036000830152612ba481612772565b9050919050565b60006020820190508181036000830152612bc481612795565b9050919050565b60006020820190508181036000830152612be4816127b8565b9050919050565b60006020820190508181036000830152612c04816127db565b9050919050565b60006020820190508181036000830152612c24816127fe565b9050919050565b60006020820190508181036000830152612c4481612821565b9050919050565b60006020820190508181036000830152612c6481612844565b9050919050565b60006020820190508181036000830152612c8481612867565b9050919050565b60006020820190508181036000830152612ca48161288a565b9050919050565b60006020820190508181036000830152612cc4816128ad565b9050919050565b60006020820190508181036000830152612ce4816128d0565b9050919050565b60006020820190508181036000830152612d04816128f3565b9050919050565b60006020820190508181036000830152612d2481612916565b9050919050565b60006020820190508181036000830152612d4481612939565b9050919050565b60006020820190508181036000830152612d648161295c565b9050919050565b60006020820190508181036000830152612d848161297f565b9050919050565b60006020820190508181036000830152612da4816129a2565b9050919050565b60006020820190508181036000830152612dc4816129c5565b9050919050565b60006020820190508181036000830152612de481612a0b565b9050919050565b6000606082019050612e006000830184612a2e565b92915050565b6000602082019050612e1b6000830184612a7f565b92915050565b6000606082019050612e366000830186612a7f565b612e43602083018561269d565b612e506040830184612a7f565b949350505050565b6000612e62612e73565b9050612e6e82826130d0565b919050565b6000604051905090565b600067ffffffffffffffff821115612e9857612e97613208565b5b612ea182613237565b9050602081019050919050565b600067ffffffffffffffff821115612ec957612ec8613208565b5b612ed282613237565b9050602081019050919050565b600081519050919050565b600081519050919050565b600082825260208201905092915050565b600081905092915050565b600082825260208201905092915050565b600081905092915050565b6000612f3882613052565b9150612f4383613052565b9250827fffffffffffffffffffffffffffffffffffffffffffffffffffffffffffffffff03821115612f7857612f7761317b565b5b828201905092915050565b6000612f8e82613052565b9150612f9983613052565b925082612fa957612fa86131aa565b5b828204905092915050565b6000612fbf82613052565b9150612fca83613052565b925082821015612fdd57612fdc61317b565b5b828203905092915050565b6000612ff382613032565b9050919050565b60008115159050919050565b60007fffffffff0000000000000000000000000000000000000000000000000000000082169050919050565b600073ffffffffffffffffffffffffffffffffffffffff82169050919050565b6000819050919050565b82818337600083830152505050565b60005b8381101561308957808201518184015260208101905061306e565b83811115613098576000848401525b50505050565b600060028204905060018216806130b657607f821691505b602082108114156130ca576130c96131d9565b5b50919050565b6130d982613237565b810181811067ffffffffffffffff821117156130f8576130f7613208565b5b80604052505050565b600061310c82613052565b91507fffffffffffffffffffffffffffffffffffffffffffffffffffffffffffffffff82141561313f5761313e61317b565b5b600182019050919050565b600061315582613052565b915061316083613052565b9250826131705761316f6131aa565b5b828206905092915050565b7f4e487b7100000000000000000000000000000000000000000000000000000000600052601160045260246000fd5b7f4e487b7100000000000000000000000000000000000000000000000000000000600052601260045260246000fd5b7f4e487b7100000000000000000000000000000000000000000000000000000000600052602260045260246000fd5b7f4e487b7100000000000000000000000000000000000000000000000000000000600052604160045260246000fd5b6000601f19601f8301169050919050565b7f4552433732313a207472616e7366657220746f206e6f6e20455243373231526560008201527f63656976657220696d706c656d656e7465720000000000000000000000000000602082015250565b7f4e6f7420656e6f7567682045544820746f20627579207468697320546f70205060008201527f69636b0000000000000000000000000000000000000000000000000000000000602082015250565b7f4552433732313a20746f6b656e20616c7265616479206d696e74656400000000600082015250565b7f4552433732313a207472616e7366657220746f20746865207a65726f2061646460008201527f7265737300000000000000000000000000000000000000000000000000000000602082015250565b7f4552433732313a20617070726f766520746f2063616c6c657200000000000000600082015250565b7f4552433732313a206f70657261746f7220717565727920666f72206e6f6e657860008201527f697374656e7420746f6b656e0000000000000000000000000000000000000000602082015250565b7f4552433732313a20617070726f76652063616c6c6572206973206e6f74206f7760008201527f6e6572206e6f7220617070726f76656420666f7220616c6c0000000000000000602082015250565b7f4552433732313a2062616c616e636520717565727920666f7220746865207a6560008201527f726f206164647265737300000000000000000000000000000000000000000000602082015250565b7f4552433732313a206f776e657220717565727920666f72206e6f6e657869737460008201527f656e7420746f6b656e0000000000000000000000000000000000000000000000602082015250565b7f45524337323155524953746f726167653a2055524920736574206f66206e6f6e60008201527f6578697374656e7420746f6b656e000000000000000000000000000000000000602082015250565b7f596f7520616c7265616479206f776e207468697320546f70205069636b000000600082015250565b7f4552433732313a206d696e7420746f20746865207a65726f2061646472657373600082015250565b7f45524337323155524953746f726167653a2055524920717565727920666f722060008201527f6e6f6e6578697374656e7420746f6b656e000000000000000000000000000000602082015250565b7f4661696c656420746f205472616e7366657220546f70205069636b0000000000600082015250565b7f4552433732313a20617070726f76656420717565727920666f72206e6f6e657860008201527f697374656e7420746f6b656e0000000000000000000000000000000000000000602082015250565b7f4552433732313a207472616e73666572206f6620746f6b656e2074686174206960008201527f73206e6f74206f776e0000000000000000000000000000000000000000000000602082015250565b7f4552433732314d657461646174613a2055524920717565727920666f72206e6f60008201527f6e6578697374656e7420746f6b656e0000000000000000000000000000000000602082015250565b7f4552433732313a20617070726f76616c20746f2063757272656e74206f776e6560008201527f7200000000000000000000000000000000000000000000000000000000000000602082015250565b7f546f70205069636b206e6f7420666f722073616c650000000000000000000000600082015250565b50565b7f4552433732313a207472616e736665722063616c6c6572206973206e6f74206f60008201527f776e6572206e6f7220617070726f766564000000000000000000000000000000602082015250565b61379c81612fe8565b81146137a757600080fd5b50565b6137b381612ffa565b81146137be57600080fd5b50565b6137ca81613006565b81146137d557600080fd5b50565b6137e181613052565b81146137ec57600080fd5b5056fea264697066735822122043ccc106097349808b83cd4aaf1867a6d3f7f09781b7a028ef485e97ac96d49664736f6c63430008040033",
    "linkReferences": {},
    "deployedLinkReferences": {}
}